{
  "_format": "hh-sol-artifact-1",
  "contractName": "Collection",
  "sourceName": "src/Collection.sol",
  "abi": [
    {
      "inputs": [
        {
          "internalType": "string",
          "name": "_name",
          "type": "string"
        },
        {
          "internalType": "uint256",
          "name": "_cardCount",
          "type": "uint256"
        },
        {
          "internalType": "address",
          "name": "_owner",
          "type": "address"
        }
      ],
      "stateMutability": "nonpayable",
      "type": "constructor"
    },
    {
      "anonymous": false,
      "inputs": [
        {
          "indexed": true,
          "internalType": "address",
          "name": "owner",
          "type": "address"
        },
        {
          "indexed": true,
          "internalType": "address",
          "name": "approved",
          "type": "address"
        },
        {
          "indexed": true,
          "internalType": "uint256",
          "name": "tokenId",
          "type": "uint256"
        }
      ],
      "name": "Approval",
      "type": "event"
    },
    {
      "anonymous": false,
      "inputs": [
        {
          "indexed": true,
          "internalType": "address",
          "name": "owner",
          "type": "address"
        },
        {
          "indexed": true,
          "internalType": "address",
          "name": "operator",
          "type": "address"
        },
        {
          "indexed": false,
          "internalType": "bool",
          "name": "approved",
          "type": "bool"
        }
      ],
      "name": "ApprovalForAll",
      "type": "event"
    },
    {
      "anonymous": false,
      "inputs": [
        {
          "indexed": false,
          "internalType": "uint256",
          "name": "tokenId",
          "type": "uint256"
        },
        {
          "indexed": false,
          "internalType": "address",
          "name": "seller",
          "type": "address"
        },
        {
          "indexed": false,
          "internalType": "address",
          "name": "buyer",
          "type": "address"
        },
        {
          "indexed": false,
          "internalType": "uint256",
          "name": "price",
          "type": "uint256"
        }
      ],
      "name": "CardSold",
      "type": "event"
    },
    {
      "anonymous": false,
      "inputs": [
        {
          "indexed": true,
          "internalType": "address",
          "name": "from",
          "type": "address"
        },
        {
          "indexed": true,
          "internalType": "address",
          "name": "to",
          "type": "address"
        },
        {
          "indexed": true,
          "internalType": "uint256",
          "name": "tokenId",
          "type": "uint256"
        }
      ],
      "name": "Transfer",
      "type": "event"
    },
    {
      "inputs": [
        {
          "internalType": "address",
          "name": "to",
          "type": "address"
        },
        {
          "internalType": "uint256",
          "name": "tokenId",
          "type": "uint256"
        }
      ],
      "name": "approve",
      "outputs": [],
      "stateMutability": "nonpayable",
      "type": "function"
    },
    {
      "inputs": [
        {
          "internalType": "address",
          "name": "owner",
          "type": "address"
        }
      ],
      "name": "balanceOf",
      "outputs": [
        {
          "internalType": "uint256",
          "name": "",
          "type": "uint256"
        }
      ],
      "stateMutability": "view",
      "type": "function"
    },
    {
      "inputs": [
        {
          "internalType": "uint256",
          "name": "tokenId",
          "type": "uint256"
        },
        {
          "internalType": "address",
          "name": "buyer",
          "type": "address"
        },
        {
          "internalType": "uint256",
          "name": "price",
          "type": "uint256"
        }
      ],
      "name": "buyCardCollection",
      "outputs": [],
      "stateMutability": "payable",
      "type": "function"
    },
    {
      "inputs": [],
      "name": "cardCount",
      "outputs": [
        {
          "internalType": "uint256",
          "name": "",
          "type": "uint256"
        }
      ],
      "stateMutability": "view",
      "type": "function"
    },
    {
      "inputs": [],
      "name": "cardPrice",
      "outputs": [
        {
          "internalType": "uint256",
          "name": "",
          "type": "uint256"
        }
      ],
      "stateMutability": "view",
      "type": "function"
    },
    {
      "inputs": [],
      "name": "getAllCards",
      "outputs": [
        {
          "components": [
            {
              "internalType": "string",
              "name": "name",
              "type": "string"
            },
            {
              "internalType": "string",
              "name": "imageURI",
              "type": "string"
            },
            {
              "internalType": "address",
              "name": "owner",
              "type": "address"
            },
            {
              "internalType": "bool",
              "name": "forSale",
              "type": "bool"
            },
            {
              "internalType": "uint256",
              "name": "price",
              "type": "uint256"
            }
          ],
          "internalType": "struct Collection.Card[]",
          "name": "",
          "type": "tuple[]"
        }
      ],
      "stateMutability": "view",
      "type": "function"
    },
    {
      "inputs": [
        {
          "internalType": "uint256",
          "name": "tokenId",
          "type": "uint256"
        }
      ],
      "name": "getApproved",
      "outputs": [
        {
          "internalType": "address",
          "name": "",
          "type": "address"
        }
      ],
      "stateMutability": "view",
      "type": "function"
    },
    {
      "inputs": [
        {
          "internalType": "uint256",
          "name": "tokenId",
          "type": "uint256"
        }
      ],
      "name": "getCard",
      "outputs": [
        {
          "components": [
            {
              "internalType": "string",
              "name": "name",
              "type": "string"
            },
            {
              "internalType": "string",
              "name": "imageURI",
              "type": "string"
            },
            {
              "internalType": "address",
              "name": "owner",
              "type": "address"
            },
            {
              "internalType": "bool",
              "name": "forSale",
              "type": "bool"
            },
            {
              "internalType": "uint256",
              "name": "price",
              "type": "uint256"
            }
          ],
          "internalType": "struct Collection.Card",
          "name": "",
          "type": "tuple"
        }
      ],
      "stateMutability": "view",
      "type": "function"
    },
    {
      "inputs": [
        {
          "internalType": "address",
          "name": "owner",
          "type": "address"
        },
        {
          "internalType": "address",
          "name": "operator",
          "type": "address"
        }
      ],
      "name": "isApprovedForAll",
      "outputs": [
        {
          "internalType": "bool",
          "name": "",
          "type": "bool"
        }
      ],
      "stateMutability": "view",
      "type": "function"
    },
    {
      "inputs": [
        {
          "internalType": "address",
          "name": "to",
          "type": "address"
        },
        {
          "internalType": "string",
          "name": "name",
          "type": "string"
        },
        {
          "internalType": "string",
          "name": "imageURI",
          "type": "string"
        }
      ],
      "name": "mint",
      "outputs": [],
      "stateMutability": "nonpayable",
      "type": "function"
    },
    {
      "inputs": [],
      "name": "name",
      "outputs": [
        {
          "internalType": "string",
          "name": "",
          "type": "string"
        }
      ],
      "stateMutability": "view",
      "type": "function"
    },
    {
      "inputs": [],
      "name": "nameC",
      "outputs": [
        {
          "internalType": "string",
          "name": "",
          "type": "string"
        }
      ],
      "stateMutability": "view",
      "type": "function"
    },
    {
      "inputs": [],
      "name": "owner",
      "outputs": [
        {
          "internalType": "address",
          "name": "",
          "type": "address"
        }
      ],
      "stateMutability": "view",
      "type": "function"
    },
    {
      "inputs": [
        {
          "internalType": "uint256",
          "name": "tokenId",
          "type": "uint256"
        }
      ],
      "name": "ownerOf",
      "outputs": [
        {
          "internalType": "address",
          "name": "",
          "type": "address"
        }
      ],
      "stateMutability": "view",
      "type": "function"
    },
    {
      "inputs": [
        {
          "internalType": "uint256",
          "name": "tokenId",
          "type": "uint256"
        }
      ],
      "name": "removeFromSale",
      "outputs": [],
      "stateMutability": "nonpayable",
      "type": "function"
    },
    {
      "inputs": [
        {
          "internalType": "address",
          "name": "from",
          "type": "address"
        },
        {
          "internalType": "address",
          "name": "to",
          "type": "address"
        },
        {
          "internalType": "uint256",
          "name": "tokenId",
          "type": "uint256"
        }
      ],
      "name": "safeTransferFrom",
      "outputs": [],
      "stateMutability": "nonpayable",
      "type": "function"
    },
    {
      "inputs": [
        {
          "internalType": "address",
          "name": "from",
          "type": "address"
        },
        {
          "internalType": "address",
          "name": "to",
          "type": "address"
        },
        {
          "internalType": "uint256",
          "name": "tokenId",
          "type": "uint256"
        },
        {
          "internalType": "bytes",
          "name": "data",
          "type": "bytes"
        }
      ],
      "name": "safeTransferFrom",
      "outputs": [],
      "stateMutability": "nonpayable",
      "type": "function"
    },
    {
      "inputs": [
        {
          "internalType": "address",
          "name": "operator",
          "type": "address"
        },
        {
          "internalType": "bool",
          "name": "approved",
          "type": "bool"
        }
      ],
      "name": "setApprovalForAll",
      "outputs": [],
      "stateMutability": "nonpayable",
      "type": "function"
    },
    {
      "inputs": [
        {
          "internalType": "uint256",
          "name": "tokenId",
          "type": "uint256"
        }
      ],
      "name": "setForSale",
      "outputs": [],
      "stateMutability": "nonpayable",
      "type": "function"
    },
    {
      "inputs": [
        {
          "internalType": "bytes4",
          "name": "interfaceId",
          "type": "bytes4"
        }
      ],
      "name": "supportsInterface",
      "outputs": [
        {
          "internalType": "bool",
          "name": "",
          "type": "bool"
        }
      ],
      "stateMutability": "view",
      "type": "function"
    },
    {
      "inputs": [],
      "name": "symbol",
      "outputs": [
        {
          "internalType": "string",
          "name": "",
          "type": "string"
        }
      ],
      "stateMutability": "view",
      "type": "function"
    },
    {
      "inputs": [
        {
          "internalType": "uint256",
          "name": "tokenId",
          "type": "uint256"
        }
      ],
      "name": "tokenURI",
      "outputs": [
        {
          "internalType": "string",
          "name": "",
          "type": "string"
        }
      ],
      "stateMutability": "view",
      "type": "function"
    },
    {
      "inputs": [
        {
          "internalType": "address",
          "name": "from",
          "type": "address"
        },
        {
          "internalType": "address",
          "name": "to",
          "type": "address"
        },
        {
          "internalType": "uint256",
          "name": "tokenId",
          "type": "uint256"
        }
      ],
      "name": "transferFrom",
      "outputs": [],
      "stateMutability": "nonpayable",
      "type": "function"
    }
  ],
  "bytecode": "0x60806040526000600a553480156200001657600080fd5b50604051620022cd380380620022cd8339810160408190526200003991620000e7565b604080518082019091526005815264135653919560da1b60208201528390600062000065838262000267565b50600162000074828262000267565b5060079150620000879050848262000267565b50600991909155600880546001600160a01b0319166001600160a01b039092169190911790555062000333565b634e487b7160e01b600052604160045260246000fd5b80516001600160a01b0381168114620000e257600080fd5b919050565b600080600060608486031215620000fd57600080fd5b83516001600160401b03808211156200011557600080fd5b818601915086601f8301126200012a57600080fd5b8151818111156200013f576200013f620000b4565b604051601f8201601f19908116603f011681019083821181831017156200016a576200016a620000b4565b816040528281526020935089848487010111156200018757600080fd5b600091505b82821015620001ab57848201840151818301850152908301906200018c565b60008484830101528097505050508086015193505050620001cf60408501620000ca565b90509250925092565b600181811c90821680620001ed57607f821691505b6020821081036200020e57634e487b7160e01b600052602260045260246000fd5b50919050565b601f8211156200026257600081815260208120601f850160051c810160208610156200023d5750805b601f850160051c820191505b818110156200025e5782815560010162000249565b5050505b505050565b81516001600160401b03811115620002835762000283620000b4565b6200029b81620002948454620001d8565b8462000214565b602080601f831160018114620002d35760008415620002ba5750858301515b600019600386901b1c1916600185901b1785556200025e565b600085815260208120601f198616915b828110156200030457888601518255948401946001909101908401620002e3565b5085821015620003235787850151600019600388901b60f8161c191681555b5050505050600190811b01905550565b611f8a80620003436000396000f3fe6080604052600436106101405760003560e01c806370a08231116100b6578063b88d4fde1161006f578063b88d4fde146103c9578063c87b56dd146103e9578063cea1351614610409578063de34bacd1461042b578063e985e9c514610441578063edcf413d1461048a57600080fd5b806370a08231146103075780638da5cb5b146103275780639188d3121461034757806395d89b41146103745780639907119014610389578063a22cb465146103a957600080fd5b80631b6cde10116101085780631b6cde101461022f57806323b872dd146102535780633dc2ea741461027357806342842e0e146102885780636352211e146102a85780636f8d1ff1146102c857600080fd5b806301ffc9a71461014557806306fdde031461017a578063081812fc1461019c578063095ea7b3146101d45780631361a3b6146101f6575b600080fd5b34801561015157600080fd5b50610165610160366004611800565b61049d565b60405190151581526020015b60405180910390f35b34801561018657600080fd5b5061018f6104ef565b604051610171919061186d565b3480156101a857600080fd5b506101bc6101b7366004611880565b610581565b6040516001600160a01b039091168152602001610171565b3480156101e057600080fd5b506101f46101ef3660046118b5565b6105a8565b005b34801561020257600080fd5b506101f4610211366004611880565b6000908152600b60205260409020600201805460ff60a01b19169055565b34801561023b57600080fd5b5061024560095481565b604051908152602001610171565b34801561025f57600080fd5b506101f461026e3660046118df565b6106c2565b34801561027f57600080fd5b5061018f6106f3565b34801561029457600080fd5b506101f46102a33660046118df565b610781565b3480156102b457600080fd5b506101bc6102c3366004611880565b61079c565b3480156102d457600080fd5b506101f46102e3366004611880565b6000908152600b60205260409020600201805460ff60a01b1916600160a01b179055565b34801561031357600080fd5b5061024561032236600461191b565b6107fc565b34801561033357600080fd5b506008546101bc906001600160a01b031681565b34801561035357600080fd5b50610367610362366004611880565b610882565b6040516101719190611999565b34801561038057600080fd5b5061018f6109fc565b34801561039557600080fd5b506101f46103a4366004611a58565b610a0b565b3480156103b557600080fd5b506101f46103c4366004611acc565b610adb565b3480156103d557600080fd5b506101f46103e4366004611b08565b610aea565b3480156103f557600080fd5b5061018f610404366004611880565b610b22565b34801561041557600080fd5b5061041e610b96565b6040516101719190611b84565b34801561043757600080fd5b50610245600a5481565b34801561044d57600080fd5b5061016561045c366004611be6565b6001600160a01b03918216600090815260056020908152604080832093909416825291909152205460ff1690565b6101f4610498366004611c19565b610da2565b60006001600160e01b031982166380ac58cd60e01b14806104ce57506001600160e01b03198216635b5e139f60e01b145b806104e957506301ffc9a760e01b6001600160e01b03198316145b92915050565b6060600080546104fe90611c3e565b80601f016020809104026020016040519081016040528092919081815260200182805461052a90611c3e565b80156105775780601f1061054c57610100808354040283529160200191610577565b820191906000526020600020905b81548152906001019060200180831161055a57829003601f168201915b5050505050905090565b600061058c82610f0d565b506000908152600460205260409020546001600160a01b031690565b60006105b38261079c565b9050806001600160a01b0316836001600160a01b0316036106255760405162461bcd60e51b815260206004820152602160248201527f4552433732313a20617070726f76616c20746f2063757272656e74206f776e656044820152603960f91b60648201526084015b60405180910390fd5b336001600160a01b03821614806106415750610641813361045c565b6106b35760405162461bcd60e51b815260206004820152603d60248201527f4552433732313a20617070726f76652063616c6c6572206973206e6f7420746f60448201527f6b656e206f776e6572206f7220617070726f76656420666f7220616c6c000000606482015260840161061c565b6106bd8383610f6f565b505050565b6106cc3382610fdd565b6106e85760405162461bcd60e51b815260040161061c90611c72565b6106bd83838361105c565b6007805461070090611c3e565b80601f016020809104026020016040519081016040528092919081815260200182805461072c90611c3e565b80156107795780601f1061074e57610100808354040283529160200191610779565b820191906000526020600020905b81548152906001019060200180831161075c57829003601f168201915b505050505081565b6106bd83838360405180602001604052806000815250610aea565b6000818152600260205260408120546001600160a01b0316806104e95760405162461bcd60e51b8152602060048201526018602482015277115490cdcc8c4e881a5b9d985b1a59081d1bdad95b88125160421b604482015260640161061c565b60006001600160a01b0382166108665760405162461bcd60e51b815260206004820152602960248201527f4552433732313a2061646472657373207a65726f206973206e6f7420612076616044820152683634b21037bbb732b960b91b606482015260840161061c565b506001600160a01b031660009081526003602052604090205490565b61088a6117b0565b6000828152600b602052604090819020815160a081019092528054829082906108b290611c3e565b80601f01602080910402602001604051908101604052809291908181526020018280546108de90611c3e565b801561092b5780601f106109005761010080835404028352916020019161092b565b820191906000526020600020905b81548152906001019060200180831161090e57829003601f168201915b5050505050815260200160018201805461094490611c3e565b80601f016020809104026020016040519081016040528092919081815260200182805461097090611c3e565b80156109bd5780601f10610992576101008083540402835291602001916109bd565b820191906000526020600020905b8154815290600101906020018083116109a057829003601f168201915b505050918352505060028201546001600160a01b0381166020830152600160a01b900460ff161515604082015260039091015460609091015292915050565b6060600180546104fe90611c3e565b6006805460009182610a1c83611cbf565b919050559050610a2c84826111c0565b6040805160a08101825284815260208082018590526001600160a01b0387168284015260016060830152600a5460808301526000848152600b9091529190912081518190610a7a9082611d34565b5060208201516001820190610a8f9082611d34565b50604082015160028201805460608501511515600160a01b026001600160a81b03199091166001600160a01b039093169290921791909117905560809091015160039091015550505050565b610ae63383836111da565b5050565b610af43383610fdd565b610b105760405162461bcd60e51b815260040161061c90611c72565b610b1c848484846112a8565b50505050565b6060610b2d82610f0d565b6000610b4460408051602081019091526000815290565b90506000815111610b645760405180602001604052806000815250610b8f565b80610b6e846112db565b604051602001610b7f929190611df4565b6040516020818303038152906040525b9392505050565b6060600060065467ffffffffffffffff811115610bb557610bb56119ac565b604051908082528060200260200182016040528015610bee57816020015b610bdb6117b0565b815260200190600190039081610bd35790505b50905060005b600654811015610d9c576000818152600b602052604090819020815160a08101909252805482908290610c2690611c3e565b80601f0160208091040260200160405190810160405280929190818152602001828054610c5290611c3e565b8015610c9f5780601f10610c7457610100808354040283529160200191610c9f565b820191906000526020600020905b815481529060010190602001808311610c8257829003601f168201915b50505050508152602001600182018054610cb890611c3e565b80601f0160208091040260200160405190810160405280929190818152602001828054610ce490611c3e565b8015610d315780601f10610d0657610100808354040283529160200191610d31565b820191906000526020600020905b815481529060010190602001808311610d1457829003601f168201915b505050918352505060028201546001600160a01b0381166020830152600160a01b900460ff16151560408201526003909101546060909101528251839083908110610d7e57610d7e611e23565b60200260200101819052508080610d9490611cbf565b915050610bf4565b50919050565b6000838152600b602052604090206002810154600160a01b900460ff16610dff5760405162461bcd60e51b815260206004820152601160248201527043617264206e6f7420666f722073616c6560781b604482015260640161061c565b8060030154341015610e4a5760405162461bcd60e51b8152602060048201526014602482015273125b9cdd59999a58da595b9d081c185e5b595b9d60621b604482015260640161061c565b60028101546040805180820190915260088152673b32b73232b237b960c11b60208201526001600160a01b0390911690610e84908261136e565b610e8d856113b3565b610e9881858761105c565b6002820180546001600160a81b0319166001600160a01b0386811691821790925560006003850155604080518881529284166020840152820152606081018490527f3b3ac2ab5b9e6e0795dc8546c191e4ac6e4bb6be5c3022ea49eeca4b346bf9409060800160405180910390a15050505050565b6000818152600260205260409020546001600160a01b0316610f6c5760405162461bcd60e51b8152602060048201526018602482015277115490cdcc8c4e881a5b9d985b1a59081d1bdad95b88125160421b604482015260640161061c565b50565b600081815260046020526040902080546001600160a01b0319166001600160a01b0384169081179091558190610fa48261079c565b6001600160a01b03167f8c5be1e5ebec7d5bd14f71427d1e84f3dd0314c0f7b2291e5b200ac8c7c3b92560405160405180910390a45050565b600080610fe98361079c565b9050806001600160a01b0316846001600160a01b0316148061103057506001600160a01b0380821660009081526005602090815260408083209388168352929052205460ff165b806110545750836001600160a01b031661104984610581565b6001600160a01b0316145b949350505050565b826001600160a01b031661106f8261079c565b6001600160a01b0316146110955760405162461bcd60e51b815260040161061c90611e39565b6001600160a01b0382166110f75760405162461bcd60e51b8152602060048201526024808201527f4552433732313a207472616e7366657220746f20746865207a65726f206164646044820152637265737360e01b606482015260840161061c565b826001600160a01b031661110a8261079c565b6001600160a01b0316146111305760405162461bcd60e51b815260040161061c90611e39565b600081815260046020908152604080832080546001600160a01b03199081169091556001600160a01b0387811680865260038552838620805460001901905590871680865283862080546001019055868652600290945282852080549092168417909155905184937fddf252ad1be2c89b69c2b068fc378daa952ba7f163c4a11628f55a4df523b3ef91a4505050565b610ae68282604051806020016040528060008152506113f8565b816001600160a01b0316836001600160a01b03160361123b5760405162461bcd60e51b815260206004820152601960248201527f4552433732313a20617070726f766520746f2063616c6c657200000000000000604482015260640161061c565b6001600160a01b03838116600081815260056020908152604080832094871680845294825291829020805460ff191686151590811790915591519182527f17307eab39ab6107e8899845ad3d59bd9653f200f220920489ca2b5937696c31910160405180910390a3505050565b6112b384848461105c565b6112bf8484848461142b565b610b1c5760405162461bcd60e51b815260040161061c90611e7e565b606060006112e88361152c565b600101905060008167ffffffffffffffff811115611308576113086119ac565b6040519080825280601f01601f191660200182016040528015611332576020820181803683370190505b5090508181016020015b600019016f181899199a1a9b1b9c1cb0b131b232b360811b600a86061a8153600a850494508461133c57509392505050565b610ae68282604051602401611384929190611ed0565b60408051601f198184030181529190526020810180516001600160e01b031663319af33360e01b179052611604565b610f6c816040516024016113c991815260200190565b60408051601f198184030181529190526020810180516001600160e01b031663f82c50f160e01b179052611604565b6114028383611625565b61140f600084848461142b565b6106bd5760405162461bcd60e51b815260040161061c90611e7e565b60006001600160a01b0384163b1561152157604051630a85bd0160e11b81526001600160a01b0385169063150b7a029061146f903390899088908890600401611efa565b6020604051808303816000875af19250505080156114aa575060408051601f3d908101601f191682019092526114a791810190611f37565b60015b611507573d8080156114d8576040519150601f19603f3d011682016040523d82523d6000602084013e6114dd565b606091505b5080516000036114ff5760405162461bcd60e51b815260040161061c90611e7e565b805181602001fd5b6001600160e01b031916630a85bd0160e11b149050611054565b506001949350505050565b60008072184f03e93ff9f4daa797ed6e38ed64bf6a1f0160401b831061156b5772184f03e93ff9f4daa797ed6e38ed64bf6a1f0160401b830492506040015b6d04ee2d6d415b85acef81000000008310611597576d04ee2d6d415b85acef8100000000830492506020015b662386f26fc1000083106115b557662386f26fc10000830492506010015b6305f5e10083106115cd576305f5e100830492506008015b61271083106115e157612710830492506004015b606483106115f3576064830492506002015b600a83106104e95760010192915050565b80516a636f6e736f6c652e6c6f67602083016000808483855afa5050505050565b6001600160a01b03821661167b5760405162461bcd60e51b815260206004820181905260248201527f4552433732313a206d696e7420746f20746865207a65726f2061646472657373604482015260640161061c565b6000818152600260205260409020546001600160a01b0316156116e05760405162461bcd60e51b815260206004820152601c60248201527f4552433732313a20746f6b656e20616c7265616479206d696e74656400000000604482015260640161061c565b6000818152600260205260409020546001600160a01b0316156117455760405162461bcd60e51b815260206004820152601c60248201527f4552433732313a20746f6b656e20616c7265616479206d696e74656400000000604482015260640161061c565b6001600160a01b038216600081815260036020908152604080832080546001019055848352600290915280822080546001600160a01b0319168417905551839291907fddf252ad1be2c89b69c2b068fc378daa952ba7f163c4a11628f55a4df523b3ef908290a45050565b6040518060a00160405280606081526020016060815260200160006001600160a01b03168152602001600015158152602001600081525090565b6001600160e01b031981168114610f6c57600080fd5b60006020828403121561181257600080fd5b8135610b8f816117ea565b60005b83811015611838578181015183820152602001611820565b50506000910152565b6000815180845261185981602086016020860161181d565b601f01601f19169290920160200192915050565b602081526000610b8f6020830184611841565b60006020828403121561189257600080fd5b5035919050565b80356001600160a01b03811681146118b057600080fd5b919050565b600080604083850312156118c857600080fd5b6118d183611899565b946020939093013593505050565b6000806000606084860312156118f457600080fd5b6118fd84611899565b925061190b60208501611899565b9150604084013590509250925092565b60006020828403121561192d57600080fd5b610b8f82611899565b6000815160a0845261194b60a0850182611841565b9050602083015184820360208601526119648282611841565b6040858101516001600160a01b0316908701526060808601511515908701526080948501519490950193909352509192915050565b602081526000610b8f6020830184611936565b634e487b7160e01b600052604160045260246000fd5b600067ffffffffffffffff808411156119dd576119dd6119ac565b604051601f8501601f19908116603f01168101908282118183101715611a0557611a056119ac565b81604052809350858152868686011115611a1e57600080fd5b858560208301376000602087830101525050509392505050565b600082601f830112611a4957600080fd5b610b8f838335602085016119c2565b600080600060608486031215611a6d57600080fd5b611a7684611899565b9250602084013567ffffffffffffffff80821115611a9357600080fd5b611a9f87838801611a38565b93506040860135915080821115611ab557600080fd5b50611ac286828701611a38565b9150509250925092565b60008060408385031215611adf57600080fd5b611ae883611899565b915060208301358015158114611afd57600080fd5b809150509250929050565b60008060008060808587031215611b1e57600080fd5b611b2785611899565b9350611b3560208601611899565b925060408501359150606085013567ffffffffffffffff811115611b5857600080fd5b8501601f81018713611b6957600080fd5b611b78878235602084016119c2565b91505092959194509250565b6000602080830181845280855180835260408601915060408160051b870101925083870160005b82811015611bd957603f19888603018452611bc7858351611936565b94509285019290850190600101611bab565b5092979650505050505050565b60008060408385031215611bf957600080fd5b611c0283611899565b9150611c1060208401611899565b90509250929050565b600080600060608486031215611c2e57600080fd5b8335925061190b60208501611899565b600181811c90821680611c5257607f821691505b602082108103610d9c57634e487b7160e01b600052602260045260246000fd5b6020808252602d908201527f4552433732313a2063616c6c6572206973206e6f7420746f6b656e206f776e6560408201526c1c881bdc88185c1c1c9bdd9959609a1b606082015260800190565b600060018201611cdf57634e487b7160e01b600052601160045260246000fd5b5060010190565b601f8211156106bd57600081815260208120601f850160051c81016020861015611d0d5750805b601f850160051c820191505b81811015611d2c57828155600101611d19565b505050505050565b815167ffffffffffffffff811115611d4e57611d4e6119ac565b611d6281611d5c8454611c3e565b84611ce6565b602080601f831160018114611d975760008415611d7f5750858301515b600019600386901b1c1916600185901b178555611d2c565b600085815260208120601f198616915b82811015611dc657888601518255948401946001909101908401611da7565b5085821015611de45787850151600019600388901b60f8161c191681555b5050505050600190811b01905550565b60008351611e0681846020880161181d565b835190830190611e1a81836020880161181d565b01949350505050565b634e487b7160e01b600052603260045260246000fd5b60208082526025908201527f4552433732313a207472616e736665722066726f6d20696e636f72726563742060408201526437bbb732b960d91b606082015260800190565b60208082526032908201527f4552433732313a207472616e7366657220746f206e6f6e20455243373231526560408201527131b2b4bb32b91034b6b83632b6b2b73a32b960711b606082015260800190565b604081526000611ee36040830185611841565b905060018060a01b03831660208301529392505050565b6001600160a01b0385811682528416602082015260408101839052608060608201819052600090611f2d90830184611841565b9695505050505050565b600060208284031215611f4957600080fd5b8151610b8f816117ea56fea26469706673582212207bc70e6230a95c1dad4ced9d4bcd772e305acc68749aa7e9da2a32a473ae68ed64736f6c63430008100033",
  "linkReferences": {},
  "deployedLinkReferences": {}
}