{
  "_format": "hh-sol-artifact-1",
  "contractName": "Main",
  "sourceName": "src/Main.sol",
  "abi": [
    {
      "inputs": [],
      "stateMutability": "nonpayable",
      "type": "constructor"
    },
    {
      "anonymous": false,
      "inputs": [
        {
          "indexed": false,
          "internalType": "uint256",
          "name": "collectionIndex",
          "type": "uint256"
        },
        {
          "indexed": false,
          "internalType": "uint256",
          "name": "tokenId",
          "type": "uint256"
        },
        {
          "indexed": false,
          "internalType": "address",
          "name": "buyer",
          "type": "address"
        },
        {
          "indexed": false,
          "internalType": "uint256",
          "name": "price",
          "type": "uint256"
        }
      ],
      "name": "CardPurchased",
      "type": "event"
    },
    {
      "anonymous": false,
      "inputs": [
        {
          "indexed": true,
          "internalType": "address",
          "name": "previousOwner",
          "type": "address"
        },
        {
          "indexed": true,
          "internalType": "address",
          "name": "newOwner",
          "type": "address"
        }
      ],
      "name": "OwnershipTransferred",
      "type": "event"
    },
    {
      "stateMutability": "nonpayable",
      "type": "fallback"
    },
    {
      "inputs": [
        {
          "internalType": "uint256",
          "name": "",
          "type": "uint256"
        }
      ],
      "name": "_collections",
      "outputs": [
        {
          "internalType": "contract Collection",
          "name": "",
          "type": "address"
        }
      ],
      "stateMutability": "view",
      "type": "function"
    },
    {
      "inputs": [
        {
          "internalType": "uint256",
          "name": "collectionIndex",
          "type": "uint256"
        },
        {
          "internalType": "uint256",
          "name": "tokenId",
          "type": "uint256"
        }
      ],
      "name": "buyCard",
      "outputs": [],
      "stateMutability": "payable",
      "type": "function"
    },
    {
      "inputs": [
        {
          "internalType": "string",
          "name": "name",
          "type": "string"
        },
        {
          "internalType": "uint256",
          "name": "cardCount",
          "type": "uint256"
        }
      ],
      "name": "createCollection",
      "outputs": [],
      "stateMutability": "nonpayable",
      "type": "function"
    },
    {
      "inputs": [
        {
          "internalType": "uint256",
          "name": "collectionIndex",
          "type": "uint256"
        }
      ],
      "name": "getCollection",
      "outputs": [
        {
          "internalType": "contract Collection",
          "name": "",
          "type": "address"
        }
      ],
      "stateMutability": "view",
      "type": "function"
    },
    {
      "inputs": [],
      "name": "getCollectionCount",
      "outputs": [
        {
          "internalType": "uint256",
          "name": "",
          "type": "uint256"
        }
      ],
      "stateMutability": "view",
      "type": "function"
    },
    {
      "inputs": [],
      "name": "getCollectionsWithCards",
      "outputs": [
        {
          "components": [
            {
              "internalType": "string",
              "name": "name",
              "type": "string"
            },
            {
              "internalType": "uint256",
              "name": "cardCount",
              "type": "uint256"
            },
            {
              "components": [
                {
                  "internalType": "string",
                  "name": "name",
                  "type": "string"
                },
                {
                  "internalType": "string",
                  "name": "imageURI",
                  "type": "string"
                },
                {
                  "internalType": "address",
                  "name": "owner",
                  "type": "address"
                },
                {
                  "internalType": "bool",
                  "name": "forSale",
                  "type": "bool"
                },
                {
                  "internalType": "uint256",
                  "name": "price",
                  "type": "uint256"
                }
              ],
              "internalType": "struct Collection.Card[]",
              "name": "cards",
              "type": "tuple[]"
            }
          ],
          "internalType": "struct Main.CollectionInfo[]",
          "name": "",
          "type": "tuple[]"
        }
      ],
      "stateMutability": "view",
      "type": "function"
    },
    {
      "inputs": [],
      "name": "getMarketplaceCards",
      "outputs": [
        {
          "components": [
            {
              "internalType": "uint256",
              "name": "collectionIndex",
              "type": "uint256"
            },
            {
              "internalType": "uint256",
              "name": "tokenId",
              "type": "uint256"
            },
            {
              "internalType": "string",
              "name": "name",
              "type": "string"
            },
            {
              "internalType": "string",
              "name": "imageURI",
              "type": "string"
            },
            {
              "internalType": "address",
              "name": "owner",
              "type": "address"
            },
            {
              "internalType": "uint256",
              "name": "price",
              "type": "uint256"
            },
            {
              "internalType": "bool",
              "name": "forSale",
              "type": "bool"
            }
          ],
          "internalType": "struct Main.MarketplaceCard[]",
          "name": "",
          "type": "tuple[]"
        }
      ],
      "stateMutability": "view",
      "type": "function"
    },
    {
      "inputs": [
        {
          "internalType": "address",
          "name": "user",
          "type": "address"
        }
      ],
      "name": "getUserCards",
      "outputs": [
        {
          "components": [
            {
              "internalType": "uint256",
              "name": "collectionIndex",
              "type": "uint256"
            },
            {
              "internalType": "uint256",
              "name": "tokenId",
              "type": "uint256"
            },
            {
              "internalType": "string",
              "name": "name",
              "type": "string"
            },
            {
              "internalType": "string",
              "name": "imageURI",
              "type": "string"
            },
            {
              "internalType": "address",
              "name": "owner",
              "type": "address"
            },
            {
              "internalType": "uint256",
              "name": "price",
              "type": "uint256"
            },
            {
              "internalType": "bool",
              "name": "forSale",
              "type": "bool"
            }
          ],
          "internalType": "struct Main.MarketplaceCard[]",
          "name": "",
          "type": "tuple[]"
        }
      ],
      "stateMutability": "view",
      "type": "function"
    },
    {
      "inputs": [
        {
          "internalType": "uint256",
          "name": "collectionIndex",
          "type": "uint256"
        },
        {
          "internalType": "address",
          "name": "to",
          "type": "address"
        },
        {
          "internalType": "string",
          "name": "name",
          "type": "string"
        },
        {
          "internalType": "string",
          "name": "imageURI",
          "type": "string"
        }
      ],
      "name": "mintCardToUser",
      "outputs": [],
      "stateMutability": "nonpayable",
      "type": "function"
    },
    {
      "inputs": [],
      "name": "owner",
      "outputs": [
        {
          "internalType": "address",
          "name": "",
          "type": "address"
        }
      ],
      "stateMutability": "view",
      "type": "function"
    },
    {
      "inputs": [
        {
          "internalType": "uint256",
          "name": "collectionIndex",
          "type": "uint256"
        },
        {
          "internalType": "uint256",
          "name": "tokenId",
          "type": "uint256"
        }
      ],
      "name": "removeCardFromSale",
      "outputs": [],
      "stateMutability": "nonpayable",
      "type": "function"
    },
    {
      "inputs": [],
      "name": "renounceOwnership",
      "outputs": [],
      "stateMutability": "nonpayable",
      "type": "function"
    },
    {
      "inputs": [
        {
          "internalType": "uint256",
          "name": "collectionIndex",
          "type": "uint256"
        },
        {
          "internalType": "uint256",
          "name": "tokenId",
          "type": "uint256"
        }
      ],
      "name": "setCardForSale",
      "outputs": [],
      "stateMutability": "nonpayable",
      "type": "function"
    },
    {
      "inputs": [
        {
          "internalType": "address",
          "name": "newOwner",
          "type": "address"
        }
      ],
      "name": "transferOwnership",
      "outputs": [],
      "stateMutability": "nonpayable",
      "type": "function"
    }
  ],
  "bytecode": "0x608060405234801561001057600080fd5b5061001a33610024565b6000600255610074565b600080546001600160a01b038381166001600160a01b0319831681178455604051919092169283917f8be0079c531659141344cd1fd0a4f28419497f9722a3daafe3b4186f6b6457e09190a35050565b613d72806100836000396000f3fe608060405260043610620000f25760003560e01c806388d9f40d116200008b578063a82a596f1162000061578063a82a596f14620002f4578063b4927b3a1462000319578063d31fe1e8146200033e578063f2fde38b146200035657620000f2565b806388d9f40d14620002665780638da5cb5b146200029a57806394bcce4b14620002ba57620000f2565b806364d5415111620000cd57806364d5415114620001eb5780636ffed6201462000210578063715018a6146200022757806384ef8080146200023f57620000f2565b80631c10106f146200014d5780635a1f3c2814620001715780635b26be5014620001c4575b348015620000ff57600080fd5b5060405162461bcd60e51b815260206004820152601760248201527f46756e6374696f6e206e6f74207265636f676e697a656400000000000000000060448201526064015b60405180910390fd5b3480156200015a57600080fd5b506002546040519081526020015b60405180910390f35b3480156200017e57600080fd5b50620001ab620001903660046200125f565b6000908152600160205260409020546001600160a01b031690565b6040516001600160a01b03909116815260200162000168565b348015620001d157600080fd5b50620001e9620001e336600462001279565b6200037b565b005b348015620001f857600080fd5b50620001e96200020a36600462001399565b620003f0565b620001e96200022136600462001279565b6200047e565b3480156200023457600080fd5b50620001e9620005a8565b3480156200024c57600080fd5b5062000257620005c0565b60405162000168919062001436565b3480156200027357600080fd5b506200028b6200028536600462001577565b62000800565b6040516200016891906200159e565b348015620002a757600080fd5b506000546001600160a01b0316620001ab565b348015620002c757600080fd5b50620001ab620002d93660046200125f565b6001602052600090815260409020546001600160a01b031681565b3480156200030157600080fd5b50620001e96200031336600462001669565b62000b6a565b3480156200032657600080fd5b50620001e96200033836600462001279565b62000bf4565b3480156200034b57600080fd5b506200028b62000c35565b3480156200036357600080fd5b50620001e96200037536600462001577565b62000fe5565b60008281526001602052604090819020549051636f8d1ff160e01b8152600481018390526001600160a01b03909116908190636f8d1ff1906024015b600060405180830381600087803b158015620003d257600080fd5b505af1158015620003e7573d6000803e3d6000fd5b50505050505050565b620003fa62001064565b60008282306040516200040d9062001209565b6200041b93929190620016f2565b604051809103906000f08015801562000438573d6000803e3d6000fd5b5060028054600090815260016020526040812080546001600160a01b0319166001600160a01b038516179055815492935062000474836200173d565b9190505550505050565b620004b06040518060400160405280600e81526020016d03134b2b7103837b91030b2bab4960951b81525034620010c0565b620004e26040518060400160405280600e81526020016d03134b2b7103837b91030b2bab4960951b815250336200110d565b6000828152600160205260409081902054905163edcf413d60e01b8152600481018390523360248201523460448201526001600160a01b0390911690819063edcf413d90606401600060405180830381600087803b1580156200054457600080fd5b505af115801562000559573d6000803e3d6000fd5b50506040805186815260208101869052338183015234606082015290517f1885d553cfdca634f1a513774b3e5f6c576c241680972d25afb6045718c7bcdd9350908190036080019150a1505050565b620005b262001064565b620005be600062001156565b565b6060600060025467ffffffffffffffff811115620005e257620005e26200129c565b6040519080825280602002602001820160405280156200063a57816020015b6200062660405180606001604052806060815260200160008152602001606081525090565b815260200190600190039081620006015790505b50905060005b600254811015620007fa57600081815260016020526040808220548151630f70ba9d60e21b815291516001600160a01b0390911692918391633dc2ea749160048082019286929091908290030181865afa158015620006a3573d6000803e3d6000fd5b505050506040513d6000823e601f3d908101601f19168201604052620006cd9190810190620017ad565b90506000826001600160a01b0316631b6cde106040518163ffffffff1660e01b8152600401602060405180830381865afa15801562000710573d6000803e3d6000fd5b505050506040513d601f19601f82011682018060405250810190620007369190620017e6565b90506000836001600160a01b031663cea135166040518163ffffffff1660e01b8152600401600060405180830381865afa15801562000779573d6000803e3d6000fd5b505050506040513d6000823e601f3d908101601f19168201604052620007a3919081019062001800565b9050604051806060016040528084815260200183815260200182815250868681518110620007d557620007d56200196f565b6020026020010181905250505050508080620007f1906200173d565b91505062000640565b50919050565b60606200083a60405180604001604052806014815260200173031b0b93a30b9903837b9103ab9bab0b934b79d160651b815250836200110d565b6000805b600254811015620008ea57600081815260016020526040908190205490516370a0823160e01b81526001600160a01b038681166004830152909116906370a0823190602401602060405180830381865afa158015620008a1573d6000803e3d6000fd5b505050506040513d601f19601f82011682018060405250810190620008c79190620017e6565b620008d3908362001985565b915080620008e1816200173d565b9150506200083e565b5060008167ffffffffffffffff8111156200090957620009096200129c565b6040519080825280602002602001820160405280156200094657816020015b6200093262001217565b815260200190600190039081620009285790505b5090506000805b60025481101562000b60576000818152600160205260408082205481516367509a8b60e11b815291516001600160a01b039091169291839163cea135169160048082019286929091908290030181865afa158015620009b0573d6000803e3d6000fd5b505050506040513d6000823e601f3d908101601f19168201604052620009da919081019062001800565b905060005b815181101562000b4757886001600160a01b031682828151811062000a085762000a086200196f565b6020026020010151604001516001600160a01b03160362000b32576040518060e0016040528085815260200182815260200183838151811062000a4f5762000a4f6200196f565b602002602001015160000151815260200183838151811062000a755762000a756200196f565b602002602001015160200151815260200183838151811062000a9b5762000a9b6200196f565b6020026020010151604001516001600160a01b0316815260200183838151811062000aca5762000aca6200196f565b602002602001015160800151815260200183838151811062000af05762000af06200196f565b602002602001015160600151151581525086868151811062000b165762000b166200196f565b6020026020010181905250848062000b2e906200173d565b9550505b8062000b3e816200173d565b915050620009df565b505050808062000b57906200173d565b9150506200094d565b5081529392505050565b62000b7462001064565b60008481526001602052604090819020549051630990711960e41b81526001600160a01b0390911690819063990711909062000bb990879087908790600401620019a1565b600060405180830381600087803b15801562000bd457600080fd5b505af115801562000be9573d6000803e3d6000fd5b505050505050505050565b600082815260016020526040908190205490516309b0d1db60e11b8152600481018390526001600160a01b03909116908190631361a3b690602401620003b7565b606062000c5b60405180606001604052806025815260200162003d1860259139620011a6565b6000805b60025481101562000d08576000818152600160209081526040918290205482516301b6cde160e41b815292516001600160a01b0390911692631b6cde109260048083019391928290030181865afa15801562000cbf573d6000803e3d6000fd5b505050506040513d601f19601f8201168201806040525081019062000ce59190620017e6565b62000cf1908362001985565b91508062000cff816200173d565b91505062000c5f565b5062000d396040518060400160405280600c81526020016b2a37ba30b61031b0b932399d60a11b81525082620010c0565b60008167ffffffffffffffff81111562000d575762000d576200129c565b60405190808252806020026020018201604052801562000d9457816020015b62000d8062001217565b81526020019060019003908162000d765790505b5090506000805b60025481101562000f9b576000818152600160205260408082205481516367509a8b60e11b815291516001600160a01b039091169291839163cea135169160048082019286929091908290030181865afa15801562000dfe573d6000803e3d6000fd5b505050506040513d6000823e601f3d908101601f1916820160405262000e28919081019062001800565b905060005b815181101562000f825781818151811062000e4c5762000e4c6200196f565b6020026020010151606001511562000f6d576040518060e0016040528085815260200182815260200183838151811062000e8a5762000e8a6200196f565b602002602001015160000151815260200183838151811062000eb05762000eb06200196f565b602002602001015160200151815260200183838151811062000ed65762000ed66200196f565b6020026020010151604001516001600160a01b0316815260200183838151811062000f055762000f056200196f565b602002602001015160800151815260200183838151811062000f2b5762000f2b6200196f565b602002602001015160600151151581525086868151811062000f515762000f516200196f565b6020026020010181905250848062000f69906200173d565b9550505b8062000f79816200173d565b91505062000e2d565b505050808062000f92906200173d565b91505062000d9b565b5062000fdd6040518060400160405280601881526020017f546f74616c206d61726b6574706c6163652063617264733a000000000000000081525082620010c0565b815292915050565b62000fef62001064565b6001600160a01b038116620010565760405162461bcd60e51b815260206004820152602660248201527f4f776e61626c653a206e6577206f776e657220697320746865207a65726f206160448201526564647265737360d01b606482015260840162000144565b620010618162001156565b50565b6000546001600160a01b03163314620005be5760405162461bcd60e51b815260206004820181905260248201527f4f776e61626c653a2063616c6c6572206973206e6f7420746865206f776e6572604482015260640162000144565b620011098282604051602401620010d9929190620019e5565b60408051601f198184030181529190526020810180516001600160e01b0316632d839cb360e21b179052620011e8565b5050565b6200110982826040516024016200112692919062001a09565b60408051601f198184030181529190526020810180516001600160e01b031663319af33360e01b179052620011e8565b600080546001600160a01b038381166001600160a01b0319831681178455604051919092169283917f8be0079c531659141344cd1fd0a4f28419497f9722a3daafe3b4186f6b6457e09190a35050565b6200106181604051602401620011bd919062001a35565b60408051601f198184030181529190526020810180516001600160e01b031663104c13eb60e21b1790525b80516a636f6e736f6c652e6c6f67602083016000808483855afa5050505050565b6122cd8062001a4b83390190565b6040518060e001604052806000815260200160008152602001606081526020016060815260200160006001600160a01b03168152602001600081526020016000151581525090565b6000602082840312156200127257600080fd5b5035919050565b600080604083850312156200128d57600080fd5b50508035926020909101359150565b634e487b7160e01b600052604160045260246000fd5b60405160a0810167ffffffffffffffff81118282101715620012d857620012d86200129c565b60405290565b604051601f8201601f1916810167ffffffffffffffff811182821017156200130a576200130a6200129c565b604052919050565b600067ffffffffffffffff8211156200132f576200132f6200129c565b50601f01601f191660200190565b600082601f8301126200134f57600080fd5b813562001366620013608262001312565b620012de565b8181528460208386010111156200137c57600080fd5b816020850160208301376000918101602001919091529392505050565b60008060408385031215620013ad57600080fd5b823567ffffffffffffffff811115620013c557600080fd5b620013d3858286016200133d565b95602094909401359450505050565b60005b83811015620013ff578181015183820152602001620013e5565b50506000910152565b6000815180845262001422816020860160208601620013e2565b601f01601f19169290920160200192915050565b6000602080830181845280855180835260408601915060408160051b870101925083870160005b828110156200155457603f19888603018452815180516060875262001486606088018262001408565b905087820151888801526040820151915086810360408801528082518083528983019150898160051b8401018a8501945060005b828110156200153c57601f198583030184528551805160a08452620014e360a085018262001408565b90508d8201518482038f860152620014fc828262001408565b6040848101516001600160a01b03169087015260608085015115159087015260809384015193909501929092525050948b0194928b0192600101620014ba565b5098505050948701945050908501906001016200145d565b5092979650505050505050565b6001600160a01b03811681146200106157600080fd5b6000602082840312156200158a57600080fd5b8135620015978162001561565b9392505050565b60006020808301818452808551808352604092508286019150828160051b87010184880160005b838110156200165b57603f19898403018552815160e0815185528882015189860152878201518189870152620015fe8287018262001408565b915050606080830151868303828801526200161a838262001408565b6080858101516001600160a01b03169089015260a0858101519089015260c094850151151594909701939093525050509386019390860190600101620015c5565b509098975050505050505050565b600080600080608085870312156200168057600080fd5b843593506020850135620016948162001561565b9250604085013567ffffffffffffffff80821115620016b257600080fd5b620016c0888389016200133d565b93506060870135915080821115620016d757600080fd5b50620016e6878288016200133d565b91505092959194509250565b60608152600062001707606083018662001408565b6020830194909452506001600160a01b0391909116604090910152919050565b634e487b7160e01b600052601160045260246000fd5b60006001820162001752576200175262001727565b5060010190565b600082601f8301126200176b57600080fd5b81516200177c620013608262001312565b8181528460208386010111156200179257600080fd5b620017a5826020830160208701620013e2565b949350505050565b600060208284031215620017c057600080fd5b815167ffffffffffffffff811115620017d857600080fd5b620017a58482850162001759565b600060208284031215620017f957600080fd5b5051919050565b600060208083850312156200181457600080fd5b825167ffffffffffffffff808211156200182d57600080fd5b818501915085601f8301126200184257600080fd5b8151818111156200185757620018576200129c565b8060051b62001868858201620012de565b91825283810185019185810190898411156200188357600080fd5b86860192505b838310156200196257825185811115620018a35760008081fd5b860160a0818c03601f1901811315620018bc5760008081fd5b620018c6620012b2565b8983015188811115620018d95760008081fd5b620018e98e8c8387010162001759565b82525060408084015189811115620019015760008081fd5b620019118f8d8388010162001759565b8c84015250606080850151620019278162001561565b80838501525060809150818501518015158114620019455760008081fd5b908301529190920151908201528252918601919086019062001889565b9998505050505050505050565b634e487b7160e01b600052603260045260246000fd5b808201808211156200199b576200199b62001727565b92915050565b6001600160a01b0384168152606060208201819052600090620019c79083018562001408565b8281036040840152620019db818562001408565b9695505050505050565b604081526000620019fa604083018562001408565b90508260208301529392505050565b60408152600062001a1e604083018562001408565b905060018060a01b03831660208301529392505050565b6020815260006200159760208301846200140856fe60806040526000600a553480156200001657600080fd5b50604051620022cd380380620022cd8339810160408190526200003991620000e7565b604080518082019091526005815264135653919560da1b60208201528390600062000065838262000267565b50600162000074828262000267565b5060079150620000879050848262000267565b50600991909155600880546001600160a01b0319166001600160a01b039092169190911790555062000333565b634e487b7160e01b600052604160045260246000fd5b80516001600160a01b0381168114620000e257600080fd5b919050565b600080600060608486031215620000fd57600080fd5b83516001600160401b03808211156200011557600080fd5b818601915086601f8301126200012a57600080fd5b8151818111156200013f576200013f620000b4565b604051601f8201601f19908116603f011681019083821181831017156200016a576200016a620000b4565b816040528281526020935089848487010111156200018757600080fd5b600091505b82821015620001ab57848201840151818301850152908301906200018c565b60008484830101528097505050508086015193505050620001cf60408501620000ca565b90509250925092565b600181811c90821680620001ed57607f821691505b6020821081036200020e57634e487b7160e01b600052602260045260246000fd5b50919050565b601f8211156200026257600081815260208120601f850160051c810160208610156200023d5750805b601f850160051c820191505b818110156200025e5782815560010162000249565b5050505b505050565b81516001600160401b03811115620002835762000283620000b4565b6200029b81620002948454620001d8565b8462000214565b602080601f831160018114620002d35760008415620002ba5750858301515b600019600386901b1c1916600185901b1785556200025e565b600085815260208120601f198616915b828110156200030457888601518255948401946001909101908401620002e3565b5085821015620003235787850151600019600388901b60f8161c191681555b5050505050600190811b01905550565b611f8a80620003436000396000f3fe6080604052600436106101405760003560e01c806370a08231116100b6578063b88d4fde1161006f578063b88d4fde146103c9578063c87b56dd146103e9578063cea1351614610409578063de34bacd1461042b578063e985e9c514610441578063edcf413d1461048a57600080fd5b806370a08231146103075780638da5cb5b146103275780639188d3121461034757806395d89b41146103745780639907119014610389578063a22cb465146103a957600080fd5b80631b6cde10116101085780631b6cde101461022f57806323b872dd146102535780633dc2ea741461027357806342842e0e146102885780636352211e146102a85780636f8d1ff1146102c857600080fd5b806301ffc9a71461014557806306fdde031461017a578063081812fc1461019c578063095ea7b3146101d45780631361a3b6146101f6575b600080fd5b34801561015157600080fd5b50610165610160366004611800565b61049d565b60405190151581526020015b60405180910390f35b34801561018657600080fd5b5061018f6104ef565b604051610171919061186d565b3480156101a857600080fd5b506101bc6101b7366004611880565b610581565b6040516001600160a01b039091168152602001610171565b3480156101e057600080fd5b506101f46101ef3660046118b5565b6105a8565b005b34801561020257600080fd5b506101f4610211366004611880565b6000908152600b60205260409020600201805460ff60a01b19169055565b34801561023b57600080fd5b5061024560095481565b604051908152602001610171565b34801561025f57600080fd5b506101f461026e3660046118df565b6106c2565b34801561027f57600080fd5b5061018f6106f3565b34801561029457600080fd5b506101f46102a33660046118df565b610781565b3480156102b457600080fd5b506101bc6102c3366004611880565b61079c565b3480156102d457600080fd5b506101f46102e3366004611880565b6000908152600b60205260409020600201805460ff60a01b1916600160a01b179055565b34801561031357600080fd5b5061024561032236600461191b565b6107fc565b34801561033357600080fd5b506008546101bc906001600160a01b031681565b34801561035357600080fd5b50610367610362366004611880565b610882565b6040516101719190611999565b34801561038057600080fd5b5061018f6109fc565b34801561039557600080fd5b506101f46103a4366004611a58565b610a0b565b3480156103b557600080fd5b506101f46103c4366004611acc565b610adb565b3480156103d557600080fd5b506101f46103e4366004611b08565b610aea565b3480156103f557600080fd5b5061018f610404366004611880565b610b22565b34801561041557600080fd5b5061041e610b96565b6040516101719190611b84565b34801561043757600080fd5b50610245600a5481565b34801561044d57600080fd5b5061016561045c366004611be6565b6001600160a01b03918216600090815260056020908152604080832093909416825291909152205460ff1690565b6101f4610498366004611c19565b610da2565b60006001600160e01b031982166380ac58cd60e01b14806104ce57506001600160e01b03198216635b5e139f60e01b145b806104e957506301ffc9a760e01b6001600160e01b03198316145b92915050565b6060600080546104fe90611c3e565b80601f016020809104026020016040519081016040528092919081815260200182805461052a90611c3e565b80156105775780601f1061054c57610100808354040283529160200191610577565b820191906000526020600020905b81548152906001019060200180831161055a57829003601f168201915b5050505050905090565b600061058c82610f0d565b506000908152600460205260409020546001600160a01b031690565b60006105b38261079c565b9050806001600160a01b0316836001600160a01b0316036106255760405162461bcd60e51b815260206004820152602160248201527f4552433732313a20617070726f76616c20746f2063757272656e74206f776e656044820152603960f91b60648201526084015b60405180910390fd5b336001600160a01b03821614806106415750610641813361045c565b6106b35760405162461bcd60e51b815260206004820152603d60248201527f4552433732313a20617070726f76652063616c6c6572206973206e6f7420746f60448201527f6b656e206f776e6572206f7220617070726f76656420666f7220616c6c000000606482015260840161061c565b6106bd8383610f6f565b505050565b6106cc3382610fdd565b6106e85760405162461bcd60e51b815260040161061c90611c72565b6106bd83838361105c565b6007805461070090611c3e565b80601f016020809104026020016040519081016040528092919081815260200182805461072c90611c3e565b80156107795780601f1061074e57610100808354040283529160200191610779565b820191906000526020600020905b81548152906001019060200180831161075c57829003601f168201915b505050505081565b6106bd83838360405180602001604052806000815250610aea565b6000818152600260205260408120546001600160a01b0316806104e95760405162461bcd60e51b8152602060048201526018602482015277115490cdcc8c4e881a5b9d985b1a59081d1bdad95b88125160421b604482015260640161061c565b60006001600160a01b0382166108665760405162461bcd60e51b815260206004820152602960248201527f4552433732313a2061646472657373207a65726f206973206e6f7420612076616044820152683634b21037bbb732b960b91b606482015260840161061c565b506001600160a01b031660009081526003602052604090205490565b61088a6117b0565b6000828152600b602052604090819020815160a081019092528054829082906108b290611c3e565b80601f01602080910402602001604051908101604052809291908181526020018280546108de90611c3e565b801561092b5780601f106109005761010080835404028352916020019161092b565b820191906000526020600020905b81548152906001019060200180831161090e57829003601f168201915b5050505050815260200160018201805461094490611c3e565b80601f016020809104026020016040519081016040528092919081815260200182805461097090611c3e565b80156109bd5780601f10610992576101008083540402835291602001916109bd565b820191906000526020600020905b8154815290600101906020018083116109a057829003601f168201915b505050918352505060028201546001600160a01b0381166020830152600160a01b900460ff161515604082015260039091015460609091015292915050565b6060600180546104fe90611c3e565b6006805460009182610a1c83611cbf565b919050559050610a2c84826111c0565b6040805160a08101825284815260208082018590526001600160a01b0387168284015260016060830152600a5460808301526000848152600b9091529190912081518190610a7a9082611d34565b5060208201516001820190610a8f9082611d34565b50604082015160028201805460608501511515600160a01b026001600160a81b03199091166001600160a01b039093169290921791909117905560809091015160039091015550505050565b610ae63383836111da565b5050565b610af43383610fdd565b610b105760405162461bcd60e51b815260040161061c90611c72565b610b1c848484846112a8565b50505050565b6060610b2d82610f0d565b6000610b4460408051602081019091526000815290565b90506000815111610b645760405180602001604052806000815250610b8f565b80610b6e846112db565b604051602001610b7f929190611df4565b6040516020818303038152906040525b9392505050565b6060600060065467ffffffffffffffff811115610bb557610bb56119ac565b604051908082528060200260200182016040528015610bee57816020015b610bdb6117b0565b815260200190600190039081610bd35790505b50905060005b600654811015610d9c576000818152600b602052604090819020815160a08101909252805482908290610c2690611c3e565b80601f0160208091040260200160405190810160405280929190818152602001828054610c5290611c3e565b8015610c9f5780601f10610c7457610100808354040283529160200191610c9f565b820191906000526020600020905b815481529060010190602001808311610c8257829003601f168201915b50505050508152602001600182018054610cb890611c3e565b80601f0160208091040260200160405190810160405280929190818152602001828054610ce490611c3e565b8015610d315780601f10610d0657610100808354040283529160200191610d31565b820191906000526020600020905b815481529060010190602001808311610d1457829003601f168201915b505050918352505060028201546001600160a01b0381166020830152600160a01b900460ff16151560408201526003909101546060909101528251839083908110610d7e57610d7e611e23565b60200260200101819052508080610d9490611cbf565b915050610bf4565b50919050565b6000838152600b602052604090206002810154600160a01b900460ff16610dff5760405162461bcd60e51b815260206004820152601160248201527043617264206e6f7420666f722073616c6560781b604482015260640161061c565b8060030154341015610e4a5760405162461bcd60e51b8152602060048201526014602482015273125b9cdd59999a58da595b9d081c185e5b595b9d60621b604482015260640161061c565b60028101546040805180820190915260088152673b32b73232b237b960c11b60208201526001600160a01b0390911690610e84908261136e565b610e8d856113b3565b610e9881858761105c565b6002820180546001600160a81b0319166001600160a01b0386811691821790925560006003850155604080518881529284166020840152820152606081018490527f3b3ac2ab5b9e6e0795dc8546c191e4ac6e4bb6be5c3022ea49eeca4b346bf9409060800160405180910390a15050505050565b6000818152600260205260409020546001600160a01b0316610f6c5760405162461bcd60e51b8152602060048201526018602482015277115490cdcc8c4e881a5b9d985b1a59081d1bdad95b88125160421b604482015260640161061c565b50565b600081815260046020526040902080546001600160a01b0319166001600160a01b0384169081179091558190610fa48261079c565b6001600160a01b03167f8c5be1e5ebec7d5bd14f71427d1e84f3dd0314c0f7b2291e5b200ac8c7c3b92560405160405180910390a45050565b600080610fe98361079c565b9050806001600160a01b0316846001600160a01b0316148061103057506001600160a01b0380821660009081526005602090815260408083209388168352929052205460ff165b806110545750836001600160a01b031661104984610581565b6001600160a01b0316145b949350505050565b826001600160a01b031661106f8261079c565b6001600160a01b0316146110955760405162461bcd60e51b815260040161061c90611e39565b6001600160a01b0382166110f75760405162461bcd60e51b8152602060048201526024808201527f4552433732313a207472616e7366657220746f20746865207a65726f206164646044820152637265737360e01b606482015260840161061c565b826001600160a01b031661110a8261079c565b6001600160a01b0316146111305760405162461bcd60e51b815260040161061c90611e39565b600081815260046020908152604080832080546001600160a01b03199081169091556001600160a01b0387811680865260038552838620805460001901905590871680865283862080546001019055868652600290945282852080549092168417909155905184937fddf252ad1be2c89b69c2b068fc378daa952ba7f163c4a11628f55a4df523b3ef91a4505050565b610ae68282604051806020016040528060008152506113f8565b816001600160a01b0316836001600160a01b03160361123b5760405162461bcd60e51b815260206004820152601960248201527f4552433732313a20617070726f766520746f2063616c6c657200000000000000604482015260640161061c565b6001600160a01b03838116600081815260056020908152604080832094871680845294825291829020805460ff191686151590811790915591519182527f17307eab39ab6107e8899845ad3d59bd9653f200f220920489ca2b5937696c31910160405180910390a3505050565b6112b384848461105c565b6112bf8484848461142b565b610b1c5760405162461bcd60e51b815260040161061c90611e7e565b606060006112e88361152c565b600101905060008167ffffffffffffffff811115611308576113086119ac565b6040519080825280601f01601f191660200182016040528015611332576020820181803683370190505b5090508181016020015b600019016f181899199a1a9b1b9c1cb0b131b232b360811b600a86061a8153600a850494508461133c57509392505050565b610ae68282604051602401611384929190611ed0565b60408051601f198184030181529190526020810180516001600160e01b031663319af33360e01b179052611604565b610f6c816040516024016113c991815260200190565b60408051601f198184030181529190526020810180516001600160e01b031663f82c50f160e01b179052611604565b6114028383611625565b61140f600084848461142b565b6106bd5760405162461bcd60e51b815260040161061c90611e7e565b60006001600160a01b0384163b1561152157604051630a85bd0160e11b81526001600160a01b0385169063150b7a029061146f903390899088908890600401611efa565b6020604051808303816000875af19250505080156114aa575060408051601f3d908101601f191682019092526114a791810190611f37565b60015b611507573d8080156114d8576040519150601f19603f3d011682016040523d82523d6000602084013e6114dd565b606091505b5080516000036114ff5760405162461bcd60e51b815260040161061c90611e7e565b805181602001fd5b6001600160e01b031916630a85bd0160e11b149050611054565b506001949350505050565b60008072184f03e93ff9f4daa797ed6e38ed64bf6a1f0160401b831061156b5772184f03e93ff9f4daa797ed6e38ed64bf6a1f0160401b830492506040015b6d04ee2d6d415b85acef81000000008310611597576d04ee2d6d415b85acef8100000000830492506020015b662386f26fc1000083106115b557662386f26fc10000830492506010015b6305f5e10083106115cd576305f5e100830492506008015b61271083106115e157612710830492506004015b606483106115f3576064830492506002015b600a83106104e95760010192915050565b80516a636f6e736f6c652e6c6f67602083016000808483855afa5050505050565b6001600160a01b03821661167b5760405162461bcd60e51b815260206004820181905260248201527f4552433732313a206d696e7420746f20746865207a65726f2061646472657373604482015260640161061c565b6000818152600260205260409020546001600160a01b0316156116e05760405162461bcd60e51b815260206004820152601c60248201527f4552433732313a20746f6b656e20616c7265616479206d696e74656400000000604482015260640161061c565b6000818152600260205260409020546001600160a01b0316156117455760405162461bcd60e51b815260206004820152601c60248201527f4552433732313a20746f6b656e20616c7265616479206d696e74656400000000604482015260640161061c565b6001600160a01b038216600081815260036020908152604080832080546001019055848352600290915280822080546001600160a01b0319168417905551839291907fddf252ad1be2c89b69c2b068fc378daa952ba7f163c4a11628f55a4df523b3ef908290a45050565b6040518060a00160405280606081526020016060815260200160006001600160a01b03168152602001600015158152602001600081525090565b6001600160e01b031981168114610f6c57600080fd5b60006020828403121561181257600080fd5b8135610b8f816117ea565b60005b83811015611838578181015183820152602001611820565b50506000910152565b6000815180845261185981602086016020860161181d565b601f01601f19169290920160200192915050565b602081526000610b8f6020830184611841565b60006020828403121561189257600080fd5b5035919050565b80356001600160a01b03811681146118b057600080fd5b919050565b600080604083850312156118c857600080fd5b6118d183611899565b946020939093013593505050565b6000806000606084860312156118f457600080fd5b6118fd84611899565b925061190b60208501611899565b9150604084013590509250925092565b60006020828403121561192d57600080fd5b610b8f82611899565b6000815160a0845261194b60a0850182611841565b9050602083015184820360208601526119648282611841565b6040858101516001600160a01b0316908701526060808601511515908701526080948501519490950193909352509192915050565b602081526000610b8f6020830184611936565b634e487b7160e01b600052604160045260246000fd5b600067ffffffffffffffff808411156119dd576119dd6119ac565b604051601f8501601f19908116603f01168101908282118183101715611a0557611a056119ac565b81604052809350858152868686011115611a1e57600080fd5b858560208301376000602087830101525050509392505050565b600082601f830112611a4957600080fd5b610b8f838335602085016119c2565b600080600060608486031215611a6d57600080fd5b611a7684611899565b9250602084013567ffffffffffffffff80821115611a9357600080fd5b611a9f87838801611a38565b93506040860135915080821115611ab557600080fd5b50611ac286828701611a38565b9150509250925092565b60008060408385031215611adf57600080fd5b611ae883611899565b915060208301358015158114611afd57600080fd5b809150509250929050565b60008060008060808587031215611b1e57600080fd5b611b2785611899565b9350611b3560208601611899565b925060408501359150606085013567ffffffffffffffff811115611b5857600080fd5b8501601f81018713611b6957600080fd5b611b78878235602084016119c2565b91505092959194509250565b6000602080830181845280855180835260408601915060408160051b870101925083870160005b82811015611bd957603f19888603018452611bc7858351611936565b94509285019290850190600101611bab565b5092979650505050505050565b60008060408385031215611bf957600080fd5b611c0283611899565b9150611c1060208401611899565b90509250929050565b600080600060608486031215611c2e57600080fd5b8335925061190b60208501611899565b600181811c90821680611c5257607f821691505b602082108103610d9c57634e487b7160e01b600052602260045260246000fd5b6020808252602d908201527f4552433732313a2063616c6c6572206973206e6f7420746f6b656e206f776e6560408201526c1c881bdc88185c1c1c9bdd9959609a1b606082015260800190565b600060018201611cdf57634e487b7160e01b600052601160045260246000fd5b5060010190565b601f8211156106bd57600081815260208120601f850160051c81016020861015611d0d5750805b601f850160051c820191505b81811015611d2c57828155600101611d19565b505050505050565b815167ffffffffffffffff811115611d4e57611d4e6119ac565b611d6281611d5c8454611c3e565b84611ce6565b602080601f831160018114611d975760008415611d7f5750858301515b600019600386901b1c1916600185901b178555611d2c565b600085815260208120601f198616915b82811015611dc657888601518255948401946001909101908401611da7565b5085821015611de45787850151600019600388901b60f8161c191681555b5050505050600190811b01905550565b60008351611e0681846020880161181d565b835190830190611e1a81836020880161181d565b01949350505050565b634e487b7160e01b600052603260045260246000fd5b60208082526025908201527f4552433732313a207472616e736665722066726f6d20696e636f72726563742060408201526437bbb732b960d91b606082015260800190565b60208082526032908201527f4552433732313a207472616e7366657220746f206e6f6e20455243373231526560408201527131b2b4bb32b91034b6b83632b6b2b73a32b960711b606082015260800190565b604081526000611ee36040830185611841565b905060018060a01b03831660208301529392505050565b6001600160a01b0385811682528416602082015260408101839052608060608201819052600090611f2d90830184611841565b9695505050505050565b600060208284031215611f4957600080fd5b8151610b8f816117ea56fea26469706673582212207bc70e6230a95c1dad4ced9d4bcd772e305acc68749aa7e9da2a32a473ae68ed64736f6c634300081000335374617274696e67206765744d61726b6574706c61636543617264732066756e6374696f6ea2646970667358221220f7d5dec849f205aebebc4c54fab2c8f37afaf1da74fa012e14c94b1d4850ad5b64736f6c63430008100033",
  "linkReferences": {},
  "deployedLinkReferences": {}
}